:100000000C942A000C948B080C94B4080C94DD0812
:100010000C9447000C9447000C9447000C94470044
:100020000C9447000C942B0A0C948F070C946607D1
:100030000C9447000C9447000C9447000C94470024
:100040000C9447000C9447000C9447000C94470014
:100050000C94470011241FBECFE5D8E0DEBFCDBF12
:1000600011E0A0E6B0E0E0E7FCE102C005900D92EF
:10007000A238B107D9F711E0A2E8B1E001C01D92A2
:10008000A139B107E1F70E94770D0C94360E0C945C
:100090000000EF92FF920F931F937B018C0120E0F1
:1000A00030E040E05FE40E94F50388238CF0C80153
:1000B000B70120E030E040E05FE40E94C1010E940F
:1000C00055049B01AC01205030404040504806C0D0
:1000D000C801B7010E9455049B01AC01B901CA01D6
:1000E0001F910F91FF90EF900895A0E0B0E0EBE733
:1000F000F0E00C94FF0DDC012B01FA019C91923091
:1001000008F439C1EB018881823008F433C194309E
:1001100069F4843009F02FC111969C91119789815F
:10012000981709F428C1A6E7B0E025C1843009F486
:1001300021C18230A9F4923009F01DC19A01AD01AC
:1001400088E0EA010990AE01E90109929E0181501F
:10015000C1F7E201898111969C918923818308C1AD
:10016000923009F407C112962D903C901397EB0141
:100170008A819B811496AD90BD90CD90DC901797AD
:10018000EC80FD800E811F819101281B390BB90184
:1001900037FF04C066277727621B730B6032710537
:1001A0000CF061C0121613066CF537014801062EDB
:1001B00004C096948794779467940A94D2F721E0C8
:1001C00030E040E050E004C0220F331F441F551FB1
:1001D0006A95D2F721503040404050402E213F21B7
:1001E00040235123211531054105510521F021E01E
:1001F00030E040E050E079018A01E628F72808293C
:1002000019293CC0232BD1F1260E371E350146019A
:10021000062E04C096948794779467940A94D2F734
:1002200021E030E040E050E004C0220F331F441FC3
:10023000551F6A95D2F721503040404050402A2146
:100240003B214C215D21211531054105510521F04E
:1002500021E030E040E050E059016A01A628B728CB
:10026000C828D9280BC0821593052CF01C01AA249C
:10027000BB24650103C0EE24FF24870111969C91E5
:10028000D20111968C91981709F445C0992339F041
:10029000A80197012A193B094C095D0906C0A6016E
:1002A00095012E193F09400B510B57FD08C01182D3
:1002B0003382228224833583468357831DC081E0A5
:1002C00081833382228288279927DC01821B930B4A
:1002D000A40BB50B84839583A683B7830DC0220F2F
:1002E000331F441F551F24833583468357838281E0
:1002F000938101979383828324813581468157813D
:10030000DA01C9010197A109B1098F5F9F4FAF4F72
:10031000BF4328F30BC0918333822282EA0CFB1C7B
:100320000C1D1D1DE482F5820683178383E0808304
:10033000248135814681578157FF1AC0C901AA27F8
:1003400097FDA095BA2F81709070A070B0705695EF
:10035000479537952795822B932BA42BB52B848318
:100360009583A683B7838281938101969383828349
:10037000DF0101C0D201CD01CDB7DEB7E2E10C94BF
:100380001B0EA0E2B0E0E7ECF1E00C940B0E6983E9
:100390007A838B839C832D833E834F835887E9E048
:1003A000EE2EF12CEC0EFD1ECE010196B7010E943F
:1003B00046068E010F5E1F4FCE010596B8010E94C2
:1003C00046068A8991E089278A8BC701B801AE0168
:1003D000475E5F4F0E9475000E947105A096E6E09F
:1003E0000C94270EA0E2B0E0E8EFF1E00C940B0EC5
:1003F00069837A838B839C832D833E834F835887C5
:10040000F9E0EF2EF12CEC0EFD1ECE010196B701A6
:100410000E9446068E010F5E1F4FCE010596B80161
:100420000E944606C701B801AE01475E5F4F0E94B9
:1004300075000E947105A096E6E00C94270EA0E2DC
:10044000B0E0E5E2F2E00C94FF0D69837A838B83E0
:100450009C832D833E834F835887CE010196BE0136
:10046000675F7F4F0E944606CE010596BE016F5E14
:100470007F4F0E9446069985923088F089898230A4
:10048000C8F0943019F4823051F404C0843029F457
:10049000923081F486E790E0C6C0923049F420E0C3
:1004A0009A858A89981321E02A87CE010996BBC0D4
:1004B000823049F420E09A858A89981321E02A8BBA
:1004C000CE014196B0C02D843E844F8458886D88FB
:1004D0007E888F88988CEE24FF248701AA24BB2471
:1004E000650140E050E060E070E0E0E0F0E0C10174
:1004F00081709070892BE9F0E60CF71C081D191D1E
:100500009A01AB012A0D3B1D4C1D5D1D80E090E062
:10051000A0E0B0E0E614F7040805190520F481E036
:1005200090E0A0E0B0E0BA01A901480F591F6A1F8E
:100530007B1FAA0CBB1CCC1CDD1C97FE08C081E0F5
:1005400090E0A0E0B0E0A82AB92ACA2ADB2A3196B6
:10055000E032F10549F0660C771C881C991C569412
:10056000479437942794C3CFFA85EA892B893C892D
:100570008B859C85280F391F2E5F3F4F17C0CA01FE
:1005800081709070892B61F016950795F794E79428
:1005900080E090E0A0E0B0E8E82AF92A0A2B1B2BC3
:1005A00076956795579547952F5F3F4F77FDE7CF36
:1005B0000CC0440F551F661F771F17FD4160EE0CDE
:1005C000FF1C001F111F21503040403090E05907A0
:1005D00090E0690790E4790760F32B8F3C8FDB0193
:1005E000CA018F779070A070B07080349105A1051A
:1005F000B10561F447FD0AC0E114F10401051105DC
:1006000029F0405C5F4F6F4F7F4F40781A8EFE1786
:1006100011F081E08A8F4D8F5E8F6F8F78A383E01A
:10062000898FCE0149960E947105A096E2E10C9453
:100630001B0EA8E1B0E0EFE1F3E00C94070E698334
:100640007A838B839C832D833E834F835887B9E0C5
:10065000EB2EF12CEC0EFD1ECE010196B7010E948F
:1006600046068E010F5E1F4FCE010596B8010E940F
:1006700046062985223008F47EC03989323010F4CC
:10068000B8017CC08A859A8989278A87243011F02D
:10069000223031F4231709F06EC066E770E06EC0B7
:1006A000343039F41D861E861F86188A1C861B86E8
:1006B00004C0323021F484E08987B7015FC02B8504
:1006C0003C858B899C89281B390B3C872B87ED84C3
:1006D000FE840F851889AD88BE88CF88D88CEA142F
:1006E000FB040C051D0540F4EE0CFF1C001F111F40
:1006F000215030403C872B8720E030E040E050E044
:1007000080E090E0A0E0B0E460E070E0EA14FB0478
:100710000C051D0540F0282B392B4A2B5B2BEA18C2
:10072000FB080C091D09B695A79597958795EE0CC2
:10073000FF1C001F111F6F5F7F4F6F31710531F775
:10074000DA01C9018F779070A070B0708034910584
:10075000A105B10561F427FD0AC0E114F10401050A
:10076000110529F0205C3F4F4F4F5F4F20782D87B8
:100770003E874F87588BBE01675F7F4FCB010E943A
:1007800071056896EAE00C94230EA8E1B0E0EBEC6A
:10079000F3E00C940B0E69837A838B839C832D8307
:1007A0003E834F83588789E0E82EF12CEC0EFD1E26
:1007B000CE010196B7010E9446068E010F5E1F4FC3
:1007C000CE010596B8010E9446068985823040F028
:1007D0008989823028F0C701B8010E94BE0601C095
:1007E0008FEF6896E6E00C94270EA8E1B0E0EBEFFF
:1007F000F3E00C940B0E69837A838B839C832D83A7
:100800003E834F83588789E0E82EF12CEC0EFD1EC5
:10081000CE010196B7010E9446068E010F5E1F4F62
:10082000CE010596B8010E9446068985823040F0C7
:100830008989823028F0C701B8010E94BE0601C034
:100840008FEF6896E6E00C94270EA8E1B0E0EBE2AB
:10085000F4E00C940B0E69837A838B839C832D8345
:100860003E834F83588789E0E82EF12CEC0EFD1E65
:10087000CE010196B7010E9446068E010F5E1F4F02
:10088000CE010596B8010E9446068985823040F067
:100890008989823028F0C701B8010E94BE0601C0D4
:1008A00081E06896E6E00C94270EACE0B0E0EBE562
:1008B000F4E00C940F0E69837A838B839C83CE01C2
:1008C0000196BE016B5F7F4F0E9446068D8182308C
:1008D00061F1823050F1843021F48E81882351F10E
:1008E0002EC02F81388537FD20C06E812F31310514
:1008F0001CF06623F9F023C08EE190E0821B930B7D
:1009000029853A854B855C8504C056954795379572
:1009100027958A95D2F76623B1F05095409530958A
:1009200021953F4F4F4F5F4F0EC020E030E040E039
:1009300050E009C02FEF3FEF4FEF5FE704C020E02A
:1009400030E040E050E8B901CA012C96E2E00C9496
:100950002B0EA8E0B0E0EFEAF4E00C94070E7B0168
:100960008C01611571058105910519F482E0898377
:1009700060C083E089838EE1C82ED12CDC82CB82DB
:10098000ED82FE820F831887C801B7010E942205FD
:10099000FC013197F7FF3BC0222733272E1B3F0B6B
:1009A00057016801022E04C0D694C794B794A79447
:1009B0000A94D2F740E050E060E070E081E090E01F
:1009C000A0E0B0E004C0880F991FAA1FBB1F2A95A2
:1009D000D2F70197A109B1098E219F21A023B1234C
:1009E0000097A105B10521F041E050E060E070E022
:1009F0004A295B296C297D294D835E836F83788723
:100A00008EE190E08E1B9F0B9C838B8312C03097EE
:100A100081F00E2E04C0EE0CFF1C001F111F0A9463
:100A2000D2F7ED82FE820F831887CE1ADF0ADC82AE
:100A3000CB821A82CE0101960E9471052896EAE0C7
:100A40000C94230EEF92FF920F931F937B018C0166
:100A500080E0E81680E0F80681E0080780E01807EB
:100A600088F48FEFE816F1040105110531F028F044
:100A700088E090E0A0E0B0E017C080E090E0A0E067
:100A8000B0E012C080E0E81680E0F80680E00807D9
:100A900081E0180728F088E190E0A0E0B0E004C011
:100AA00080E190E0A0E0B0E020E230E040E050E003
:100AB000281B390B4A0B5B0B04C016950795F7945E
:100AC000E7948A95D2F7F701E258FF4F8081281BFF
:100AD000310941095109C9011F910F91FF90EF9010
:100AE0000895DF92EF92FF920F931F93FC01E48031
:100AF000F58006811781D1808081823048F480E0C2
:100B000090E0A0E1B0E0E82AF92A0A2B1B2BA5C04F
:100B1000843009F49FC0823021F4EE24FF24870141
:100B200005C0E114F1040105110519F4E0E0F0E05D
:100B300096C0628173819FEF623879070CF05BC0C9
:100B400022E83FEF261B370B2A3131052CF020E03D
:100B500030E040E050E02AC0B801A701022E04C0F6
:100B600076956795579547950A94D2F781E090E07E
:100B7000A0E0B0E004C0880F991FAA1FBB1F2A95F0
:100B8000D2F70197A109B1098E219F21A023B1239A
:100B90000097A105B10521F081E090E0A0E0B0E070
:100BA0009A01AB01282B392B4A2B5B2BDA01C901A7
:100BB0008F779070A070B07080349105A105B10559
:100BC00039F427FF09C0205C3F4F4F4F5F4F04C0EF
:100BD000215C3F4F4F4F5F4FE0E0F0E02030A0E05E
:100BE0003A07A0E04A07A0E45A0710F0E1E0F0E07D
:100BF00079018A0127C06038710564F5FB01E1586D
:100C0000FF4FD801C7018F779070A070B07080340B
:100C10009105A105B10539F4E7FE0DC080E490E02F
:100C2000A0E0B0E004C08FE390E0A0E0B0E0E80E08
:100C3000F91E0A1F1B1F17FF05C016950795F7948D
:100C4000E794319687E016950795F794E7948A958F
:100C5000D1F705C0EE24FF248701EFEFF0E06E2FFF
:100C6000679566276795902F9F77D794DD24D79453
:100C70008E2F8695492F462B582F5D29B701CA0123
:100C80001F910F91FF90EF90DF900895FC01DB0121
:100C9000408151812281622F6F7770E0221F2227CD
:100CA000221F9381892F880F822B282F30E0991FD4
:100CB0009927991F11969C93119721153105A9F534
:100CC000411551056105710511F482E037C082E8D4
:100CD0009FEF13969C938E9312979A01AB0167E056
:100CE000220F331F441F551F6A95D1F783E08C9361
:100CF0000DC0220F331F441F551F12968D919C91DA
:100D00001397019713969C938E931297203080E04F
:100D1000380780E0480780E4580758F314962D936D
:100D20003D934D935C93179708952F3F310579F4C8
:100D3000411551056105710519F484E08C930895FE
:100D400064FF03C081E08C9312C01C9210C02F5727
:100D5000304013963C932E93129783E08C9387E058
:100D6000440F551F661F771F8A95D1F7706414963C
:100D70004D935D936D937C93179708951F93DC01BA
:100D8000FB019C91923008F447C08081823008F4C6
:100D900043C0943051F411961C91843099F58181AF
:100DA000682F70E0611B71093FC0843021F09230E0
:100DB00031F48230B9F18181882389F12DC01196F7
:100DC0001C9111978230F1F081811817D9F4129695
:100DD0002D913C911397828193818217930794F010
:100DE00028173907BCF014968D919D910D90BC91F8
:100DF000A02D2481358146815781281739074A075C
:100E00005B0718F4112341F00AC082179307A40767
:100E1000B50740F4112319F061E070E005C06FEFF1
:100E20007FEF02C060E070E0CB011F91089583B7AF
:100E30008F7B83BF83B7877F83BF83B78F7E83BF5B
:100E400083B78F7D83BF83B7816083BF83B78260A1
:100E500083BF83B78B7F83BF89B7826089BF0895C3
:100E6000813049F0813020F0823051F081E00895E6
:100E700089B7816002C089B7846089BF80E0089526
:100E800089B7806489BF80E00895813049F081305E
:100E900020F0823051F081E0089589B78E7F02C042
:100EA00089B78B7F89BF80E0089589B78F7B89BF21
:100EB00080E00895009711F482E0089590938301F3
:100EC0008093820180E0089582BF08951F920F925F
:100ED0000FB60F9211242F933F934F935F936F930D
:100EE0007F938F939F93AF93BF93EF93FF93E09183
:100EF0008201F0918301309709F00995FF91EF91FC
:100F0000BF91AF919F918F917F916F915F914F9121
:100F10003F912F910F900FBE0F901F9018951F9229
:100F20000F920FB60F9211242F933F934F935F931D
:100F30006F937F938F939F93AF93BF93EF93FF93A1
:100F4000E0918201F0918301309709F00995FF91BA
:100F5000EF91BF91AF919F918F917F916F915F9131
:100F60004F913F912F910F900FBE0F901F901895AA
:100F700085B5806485BD85B5886085BD85B5806192
:100F800085BD85B5806285BD85B5816085BD0895C7
:100F900090E0A0E0B0E0BC01CD010E94A90420E0F7
:100FA00030E048EC52E40E94190320E030E04FE7C3
:100FB00053EC0E941F0220E030E04FE753E40E9410
:100FC000F2010E94490063BD089585B7826085BF24
:100FD00085B7816085BF85B7886085BF85B7846028
:100FE00085BF84B7806484BF8BB78F7B8BBF8BB783
:100FF0008F778BBF8BB78F7D8BBF0895882301F5CB
:10100000623079F0633020F4613009F049C006C0E5
:10101000633051F0643009F043C00CC085B78D7F58
:1010200005C085B78D7F08C085B7826085BF85B74D
:101030008E7F19C085B7826085BF85B7816013C078
:101040008130F9F4623089F0633018F4613041F591
:1010500005C0633069F0643019F50DC085B7877F2E
:1010600085BF85B78B7F85BF19C085B7877F05C0D2
:1010700085B78860F5CF85B7886085BF85B7846000
:10108000F2CF823069F4633019F0643049F403C060
:1010900084B78F7B02C084B7806484BF80E00895EA
:1010A00081E00895813049F0813020F0823051F0A4
:1010B00081E008958BB7806402C08BB780688BBFD6
:1010C00080E008958BB780628BBF80E00895813007
:1010D00049F0813020F0823051F081E008958BB7E3
:1010E0008F7B02C08BB78F778BBF80E008958BB763
:1010F0008F7D8BBF80E008956115710511F482E04A
:101100000895E82FF0E0EE0FFF1FEC57FE4F7183BC
:10111000608380E008951F920F920FB60F92112402
:101120002F933F934F935F936F937F938F939F93EF
:10113000AF93BF93EF93FF93E0918401F09185010A
:10114000309709F00995FF91EF91BF91AF919F9171
:101150008F917F916F915F914F913F912F910F9060
:101160000FBE0F901F9018951F920F920FB60F92FF
:1011700011242F933F934F935F936F937F938F939C
:101180009F93AF93BF93EF93FF93E0918601F0910C
:101190008701309709F00995FF91EF91BF91AF91C9
:1011A0009F918F917F916F915F914F913F912F917F
:1011B0000F900FBE0F901F9018951F920F920FB6B1
:1011C0000F9211242F933F934F935F936F937F93CD
:1011D0008F939F93AF93BF93EF93FF93E091880119
:1011E000F0918901309709F00995FF91EF91BF9136
:1011F000AF919F918F917F916F915F914F913F91AF
:101200002F910F900FBE0F901F901895789408950E
:10121000F8940895683008F062C0423008F05FC06A
:101220008130E9F0813030F0823071F1833009F0A3
:1012300056C03FC08BB321E030E0062E02C0220F23
:10124000331F0A94E2F720952823842F90E002C0F0
:10125000880F991F6A95E2F7282B2BBB3EC088B3F5
:1012600021E030E0062E02C0220F331F0A94E2F77D
:1012700020952823842F90E002C0880F991F6A953B
:10128000E2F7282B28BB29C085B321E030E0062EE9
:1012900002C0220F331F0A94E2F720952823842FDF
:1012A00090E002C0880F991F6A95E2F7282B25BBB2
:1012B00014C082B321E030E0062E02C0220F331F9B
:1012C0000A94E2F720952823842F90E002C0880F2B
:1012D000991F6A95E2F7282B22BB80E0089581E0F0
:1012E0000895813051F0813030F0823041F0833008
:1012F00049F081E008956BBB03C068BB01C065BBCA
:1013000080E0089562BB80E00895FA016830E8F457
:1013100041155105E9F0813049F0813028F08230E3
:1013200039F08330B9F406C089B305C086B303C071
:1013300083B301C080B390E002C0959587956A950C
:10134000E2F78170808380E008954115510511F422
:1013500082E0089581E008956830B0F5813091F021
:10136000813028F08230C9F0833071F521C02BB371
:1013700081E090E002C0880F991F6A95E2F7282764
:101380002BBB20C028B381E090E002C0880F991FDA
:101390006A95E2F7282728BB15C025B381E090E0C5
:1013A00002C0880F991F6A95E2F7282725BB0AC05B
:1013B00022B381E090E002C0880F991F6A95E2F79E
:1013C000282722BB80E0089581E008958FEF8ABB33
:1013D00087BB84BB8FEB81BB1BBA18BA15BA12BA94
:1013E00008958EB580648EBD8EB581608EBD0895E2
:1013F0008EB58F7B8EBD8EB581608EBD08958EB506
:101400008E7F8EBD089588B7806288BF88B784605C
:1014100088BF08951F9316B560918A0170918B0162
:1014200080E090E02FEF3FEF40E050E00E94BE0DE3
:10143000610F711D811D911D0E94A90429E23CEFDD
:1014400046E654E40E9419030E9449009B01AC0146
:10145000CA011F9108951F920F920FB60F92112487
:101460008F939F9380918A0190918B010196909325
:101470008B0180938A019F918F910F900FBE0F90E7
:101480001F90189582E060E041E00E940A0985E320
:101490008A95F1F782E060E040E00E940A091DBCF5
:1014A0001CBC8EB580648EBD8EB581608EBD88B744
:1014B000806288BF88B7846088BF08B605FEFDCF0C
:1014C0001DBC1CBC8EB58F7B8EBD8EB581608EBD64
:1014D00088B7806288BF88B7846088BF10928B010C
:1014E00010928A0108B605FEFDCF0E940A0A0895EF
:1014F0000E94060981E00E9430071FBC0895AF9248
:10150000BF92CF92DF92EF92FF920F931F938823A7
:1015100009F481E0682F70E080E090E00E94A90467
:1015200020E030E44CE754E40E941F0220E030E069
:1015300048E452E40E9419035B016C0183E065E01A
:1015400041E00E940A09C601B5012BEA3AEA4AEADB
:1015500050E40E941F027B018C0120E030E040E853
:101560005FE30E942504882314F461E054C0C8019D
:10157000B70120E030E04FE753E40E94C50318169E
:101580000CF045C0C601B50120E030E04AE754E464
:101590000E9419035B016C0120E030E04AE755E44A
:1015A0000E941F027B018C0120E030E040E85FE3F5
:1015B0000E94250488231CF461E070E024C0C80167
:1015C000B70120E03FEF4FE757E40E94C50318162C
:1015D000B4F4C601B50120E030E040E251E40E94DD
:1015E0001F020E94490080E991E005C0FC0131978B
:1015F000F1F76150704061157105C1F70EC0C80167
:10160000B7010E944900CB010197F1F706C0C8015C
:10161000B7010E9449006A95F1F783E065E040E078
:101620000E940A091F910F91FF90EF90DF90CF90D9
:10163000BF90AF9008950E94C80708950F931F931D
:10164000682F192F082F0F7062956F70802F40E060
:101650000E940A091F70802F612F40E00E940A0932
:101660001F910F910895FF920F931F93182F1F70D2
:10167000F82EF2948FE0F822092F0F70662321F0E4
:10168000613051F081E013C0812F6F2D40E00E9446
:101690000A09812F602F07C0812F602F40E00E9430
:1016A0000A09812F6F2D41E00E940A0980E01F91F5
:1016B0000F91FF9008951F93182F482F417080E0DD
:1016C00064E00E940A09412F4695417080E065E080
:1016D0000E940A0916951695412F417080E066E038
:1016E0000E940A091695117080E067E0412F0E9460
:1016F0000A091F91089581E063E041E00E940A0910
:1017000080E49FE10197F1F781E063E040E00E940F
:101710000A0908951F93182F81E061E041E00E94BB
:101720000A0981E062E040E00E940A09812F829567
:101730008F700E945B0B0E947B0B812F0E945B0BC2
:101740000E947B0B1F9108955F926F927F928F9200
:101750009F92AF92BF92CF92DF92EF92FF920F9340
:101760001F935B016C01611571058105910521F4E1
:1017700080E30E948A0B46C06624772443015524E7
:10178000C401B3012AE030E040E050E00E94BE0D09
:101790007B018C01C601B5010E94DD0D3B014C01AE
:1017A0006E0C7F1C801E911EC601B5012AE030E040
:1017B00040E050E00E94DD0DC901DA015C016D01DD
:1017C0005394A114B104C104D104D1F619C0C401C9
:1017D000B3012AE030E040E050E00E94DD0D862FAA
:1017E000805D0E948A0BC401B3012AE030E040E032
:1017F00050E00E94DD0DC901DA013C014D015A940F
:10180000552029F780E01F910F91FF90EF90DF9016
:10181000CF90BF90AF909F908F907F906F905F9090
:101820000895CF93DF93009711F482E007C0EC0195
:1018300002C00E948A0B89918823D9F7DF91CF914A
:1018400008951F93182F81E061E040E00E940A098B
:1018500081E062E040E00E940A09812F82958F704A
:101860000E945B0B0E947B0B812F0E945B0B0E94EE
:101870007B0B1F91089581E00E94210C089566233F
:1018800029F0613011F080E001C0805C80680E9426
:10189000210C0895DF92EF92FF920F931F93CF9345
:1018A000DF938C01F62EE42ED22E009711F482E005
:1018B0001BC0862F880F880F880F80640E94210C20
:1018C000C0E0D0E0F801EC0FFD1F80810E948A0B80
:1018D0002196C830D105B1F78E2D6D2D0E943F0C99
:1018E0008F2D0E948A0B80E0DF91CF911F910F9185
:1018F000FF90EF90DF90089580E991E020E931E0DA
:10190000F9013197F1F70197D9F782E00E945B0B5B
:101910000E947B0B82E00E945B0B0E947B0B88E0A5
:101920000E945B0B0E947B0B8CE00E94210C81E0EB
:101930000E94210C089582E380938F018091900191
:10194000807F84608093900182E580938D018091F7
:101950008E01807F866080938E01089526E4209317
:101960007E0120E220937F0161357105810591059B
:10197000B0F44C3429F0423541F0433481F40AC0CC
:1019800082E480937E0182E508C082E480937E0138
:101990008CE403C082E580937E0180937F011092E6
:1019A00080018EE791E008951F93142F6135710532
:1019B0008105910508F051C084E60E941B0B1C3480
:1019C00031F01235D9F0133409F058C02EC080918F
:1019D0008F019091900161E00E94330B80918D0105
:1019E00090918E010E941E0B80E197E220E931E088
:1019F000F9013197F1F70197D9F740C080918D0136
:101A000090918E0161E00E94330B80918F01909143
:101A100090010E941E0B80E197E220E931E0F9017C
:101A20003197F1F70197D9F729C080918F019091F3
:101A3000900161E00E94330B80918D0190918E01A5
:101A400060E00E94330B80E197E220E931E0F90188
:101A50003197F1F70197D9F711C084E60E941B0B6B
:101A600080918F019091900160E00E94330B8091F2
:101A70008D0190918E0160E00E94330B1F910895BB
:101A80001F938091810190918C01882311F09E5CBD
:101A900001C0925390938C0180918C01823329F084
:101AA000843639F0882319F006C013E405C01CE41D
:101AB00003C012E501C010E20E947F0A80918C01F0
:101AC0008250823640F090E080918101882309F4B1
:101AD00091E09093810180ED97E020E931E0F901F8
:101AE0003197F1F70197D9F7812F1F910895DF9270
:101AF000EF92FF920F931F93CF93DF930E94E6091B
:101B00000E947C0C0E94780A0E94B8070E949B0CDD
:101B1000C0E9D1E00E94400DD82E0E94420A7B010C
:101B20008C0180E690E00E94110CC801B7010E9470
:101B3000A40B80E061E00E943F0C8AE690E00E94E6
:101B4000110C8D2D0E948A0B80E790E00E94110CF1
:101B5000C801B7014D2D0E94AE0C0E94110CC801A6
:101B6000B7014D2D0E94D40C88E893E1FE01319716
:101B7000F1F70197D9F70E943B0CCCCF629FD001BF
:101B8000739FF001829FE00DF11D649FE00DF11D38
:101B9000929FF00D839FF00D749FF00D659FF00DE7
:101BA0009927729FB00DE11DF91F639FB00DE11DD4
:101BB000F91FBD01CF0111240895A1E21A2EAA1B1D
:101BC000BB1BFD010DC0AA1FBB1FEE1FFF1FA217ED
:101BD000B307E407F50720F0A21BB30BE40BF50BEA
:101BE000661F771F881F991F1A9469F76095709573
:101BF000809590959B01AC01BD01CF0108952F9276
:101C00003F924F925F926F927F928F929F92AF928C
:101C1000BF92CF92DF92EF92FF920F931F93CF93D9
:101C2000DF93CDB7DEB7CA1BDB0B0FB6F894DEBF70
:101C30000FBECDBF09942A88398848885F846E8496
:101C40007D848C849B84AA84B984C884DF80EE80E0
:101C5000FD800C811B81AA81B981CE0FD11D0FB6E9
:101C6000F894DEBF0FBECDBFED010895F894FFCF0D
:101C700064697374616E63653A007372766F3A00DB
:101C8000206469723A0000000000000000000001BA
:101C9000020203030303040404040404040405050A
:101CA00005050505050505050505050505050606E2
:101CB00006060606060606060606060606060606C4
:101CC00006060606060606060606060606060707B2
:101CD0000707070707070707070707070707070794
:101CE0000707070707070707070707070707070784
:101CF0000707070707070707070707070707070774
:101D00000707070707070707070707070707080861
:101D10000808080808080808080808080808080843
:101D20000808080808080808080808080808080833
:101D30000808080808080808080808080808080823
:101D40000808080808080808080808080808080813
:101D50000808080808080808080808080808080803
:101D600008080808080808080808080808080808F3
:101D700008080808080808080808080808080808E3
:101D8000080808080808080808080808080846207D
:021D9000000150
:00000001FF
